:100000000C9435000C945D000C945D000C945D0024
:100010000C945D000C945D000C945D000C945D00EC
:100020000C945D000C945D000C945D000C945D00DC
:100030000C945D000C9400010C945D000C945D0028
:100040000C948C010C945D000C940E020C945D00D9
:100050000C945D000C945D000C945D000C945D00AC
:100060000C945D000C945D00930311241FBECFEF30
:10007000D4E0DEBFCDBF11E0A0E0B1E0EAE0FBE0FC
:1000800002C005900D92AA3EB107D9F712E0AAEE80
:10009000B1E001C01D92AC38B107E1F710E0CAE64B
:1000A000D0E004C02297FE010E947F05C836D10728
:1000B000C9F70E9487010C9483050C9400008FEF10
:1000C0008AB987B984B91BB815B810928000E1E8E5
:1000D000F0E080E1808380E293E09093870080935A
:1000E000860081E080936F0010928500109284005A
:1000F00080818160808378940895429A90E0E4E062
:10010000880F991FEA95E1F7DC01A050BF4FFD0170
:100110009C01205F3E4F808191819F70691710F490
:10012000409A01C040984198419A3296E217F307ED
:1001300091F7FD0140E0262F30E0235030408081D0
:100140009181907054E0969587955A95E1F76430C7
:1001500018F4681738F404C090E08217930714F07D
:10016000409A01C040984198419A4F5F329648307A
:1001700031F790E08C918F70681710F4409A01C0AD
:1001800040984198419A9F5F1296983099F742980B
:1001900008958330B9F0843028F4813071F08230D2
:1001A00070F409C0853091F0853070F0863081F0B0
:1001B000873099F410C084E003C082E001C081E080
:1001C00085B9089580E805C080E403C080E201C0DD
:1001D00080E18BB9089588E08BB908951F93182F9B
:1001E000439A8BB187708BB985B1887F85B9812F90
:1001F0000E947D00812F0E94C90043981F9108959D
:100200001F920F920FB60F9211240F931F932F93EB
:100210003F934F935F936F937F938F939F93AF938E
:10022000BF93EF93FF931091EB010091EA01812FAF
:10023000602F0E94EE001F5F1093EB01183050F00A
:100240001092EB01802F8F5F8093EA01803110F0D4
:100250001092EA01FF91EF91BF91AF919F918F9121
:100260007F916F915F914F913F912F911F910F91CE
:100270000F900FBE0F901F901895EF92FF920F9363
:100280001F930E945F0033C000E010E089E792E016
:100290000E9444038823D1F389E792E00E94580327
:1002A000EF2DF0E0B3E0EE0FFF1FBA95E1F7E00F9E
:1002B000F11DEE0FFF1FEE0FFF1FE10FF11DE058C4
:1002C000FE4F80834E2D50E060E070E089E792E0C1
:1002D00020E130E00E94EF041F5FE3941430B0F29D
:1002E0000F5F083090F2F39482E08F1568F6FF24D8
:1002F00000E010E0EE24CACF89E792E040E052EC43
:1003000061E070E00E944B020E943D0108950E944E
:10031000D4010E947C01FFCF1F920F920FB60F9263
:1003200011242F933F938F939F93AF93BF9380910B
:10033000F0019091F101A091F201B091F30130919F
:10034000F4010196A11DB11D232F2D5F2D3720F043
:100350002D570196A11DB11D2093F4018093F0014A
:100360009093F101A093F201B093F3018091EC011D
:100370009091ED01A091EE01B091EF010196A11DC8
:10038000B11D8093EC019093ED01A093EE01B09329
:10039000EF01BF91AF919F918F913F912F910F905E
:1003A0000FBE0F901F901895789484B5826084BD1D
:1003B00084B5816084BD85B5826085BD85B5816069
:1003C00085BDEEE6F0E0808181608083E1E8F0E0C9
:1003D000808182608083808181608083E0E8F0E0BA
:1003E000808181608083E1EBF0E0808184608083A4
:1003F000E0EBF0E0808181608083EAE7F0E08081DB
:10040000846080838081826080838081816080833A
:100410008081806880831092C10008951F920F929E
:100420000FB60F9211242F933F934F935F936F93C7
:100430007F938F939F93AF93BF93EF93FF934091DD
:10044000C600E0917502F0917602CF01019660E856
:1004500070E00E9419059C018091770290917802CA
:100460002817390739F0EB50FE4F4083309376025E
:1004700020937502FF91EF91BF91AF919F918F9162
:100480007F916F915F914F913F912F910F900FBE90
:100490000F901F9018955F926F927F928F929F920C
:1004A000AF92BF92CF92DF92EF92FF920F931F9382
:1004B000CF93DF93EC013A014B01413482E45807BA
:1004C0008FE0680780E078070CF07FC060E874E890
:1004D0008EE190E0A40193010E944E05215030402E
:1004E00040405040CA01B90122E030E040E050E015
:1004F0000E944E0559016A01A6019501209530958B
:100500004095509594E0220F331F441F551F9A9534
:10051000D1F760E074E284EF90E00E944E05CA01DA
:10052000B9012FEF30E040E050E00E94FA04A4014E
:1005300093010E944E05C90181509F4F181619065C
:100540001CF4522E5A9403C055245394521A60E05E
:1005500079E08DE390E0A40193010E944E052150C3
:10056000304040405040CA01B90122E030E040E054
:1005700050E00E944E05209530954095509583E0BF
:10058000220F331F441F551F8A95D1F760E074E294
:1005900084EF90E00E944E05CA01B9012FEF30E0D0
:1005A00040E050E00E94FA04A40193010E944E052D
:1005B000C90181509F4F181619061CF4822F8150D3
:1005C00002C081E0821B851500F5E885F98581E090
:1005D00090E00A8802C0880F991F0A94E2F780838E
:1005E00060E079E08DE390E0A40193010E944E0564
:1005F0002150304040405040CA01B90122E030E073
:1006000040E050E00E944E0504C0E885F985108264
:100610009501EC81FD813083EE81FF812083EA85A5
:10062000FB85208141E050E0CA010E8402C0880FA2
:10063000991F0A94E2F7282B2083EA85FB85208105
:10064000CA010F8402C0880F991F0A94E2F7282B71
:100650002083EA85FB858081088802C0440F551FEE
:100660000A94E2F7842B8083DF91CF911F910F9141
:10067000FF90EF90DF90CF90BF90AF909F908F90C2
:100680007F906F905F900895DC011296ED91FC9140
:100690001397E058FF4F8191919180589F4F20818F
:1006A0003181821B930B60E870E00E941905089568
:1006B000CF93DF93DC011296ED91FC911397EF013C
:1006C000CE57DF4F48815981E058FF4F808191819B
:1006D000E058F0408417950719F42FEF3FEF0CC056
:1006E000E40FF51F2081CA01019660E870E00E94C6
:1006F00019059983888330E0C901DF91CF9108956E
:10070000FC01A085B18521898C9190E0022E02C068
:10071000959587950A94E2F780FFF6CF0484F585D6
:10072000E02D6083089584EE91E090937A028093A7
:10073000790285EF91E090937C0280937B0285ECB7
:1007400090E090937E0280937D0284EC90E0909301
:10075000800280937F0280EC90E0909382028093ED
:10076000810281EC90E0909384028093830286EC76
:1007700090E0909386028093850284E080938702C4
:1007800083E08093880287E08093890285E08093EC
:100790008A0281E080938B0208950F931F93CF9379
:1007A000DF938C01EB0109C02196D801ED91FC91FA
:1007B0000190F081E02DC801099568816623A1F7B9
:1007C000DF91CF911F910F910895EF92FF920F93B8
:1007D0001F93CF93DF938C017B01EA010CC0D701FB
:1007E0006D917D01D801ED91FC910190F081E02D9A
:1007F000C80109952197209791F7DF91CF911F911B
:100800000F91FF90EF9008950F931F938C01DC01DF
:10081000ED91FC910190F081E02D6DE00995D801FA
:10082000ED91FC910190F081E02DC8016AE00995FD
:100830001F910F9108952F923F924F925F926F9266
:100840007F928F929F92AF92BF92CF92DF92EF9260
:10085000FF920F931F93DF93CF93CDB7DEB7A0978F
:100860000FB6F894DEBF0FBECDBF1C016A017B013D
:10087000411551056105710549F4DC01ED91FC91CB
:100880000190F081E02D60E3099554C088249924FB
:100890005401422E55246624772401E010E00C0F09
:1008A0001D1F080D191DC701B601A30192010E9469
:1008B0002C05F80160830894811C911CA11CB11CBB
:1008C000C701B601A30192010E942C05C901DA01FA
:1008D0006C017D01C114D104E104F104F1F681E061
:1008E000E82EF12CEC0EFD1EE80CF91C3E010894DC
:1008F000611C711CD501C4010197A109B1096C01EA
:10090000C818D90814C0F601EE0DFF1D60816A30C9
:1009100010F4605D01C0695CD101ED91FC91019022
:10092000F081E02DC10109950894E108F1086E14E9
:100930007F0449F7A0960FB6F894DEBF0FBECDBF77
:10094000CF91DF911F910F91FF90EF90DF90CF90AB
:10095000BF90AF909F908F907F906F905F904F90DF
:100960003F902F900895EF92FF920F931F93CF9394
:10097000DF93EC017A018B0177FF0FC0E881F981E9
:100980000190F081E02D6DE2099510950095F094AD
:10099000E094E11CF11C011D111DCE01B801A7015D
:1009A0002AE00E941B04DF91CF911F910F91FF90CD
:1009B000EF900895DC012115310541F4ED91FC9192
:1009C0000190F081E02D642F099508952A303105BA
:1009D00019F40E94B30408950E941B0408950F9314
:1009E0001F938C010E94DA04C8010E9404041F9125
:1009F0000F910895629FD001739FF001829FE00DD7
:100A0000F11D649FE00DF11D929FF00D839FF00D8D
:100A1000749FF00D659FF00D9927729FB00DE11D39
:100A2000F91F639FB00DE11DF91FBD01CF01112416
:100A3000089597FB092E07260AD077FD04D049D0E8
:100A400006D000201AF4709561957F4F0895F6F74F
:100A5000909581959F4F0895A1E21A2EAA1BBB1B6A
:100A6000FD010DC0AA1FBB1FEE1FFF1FA217B3077A
:100A7000E407F50720F0A21BB30BE40BF50B661F90
:100A8000771F881F991F1A9469F760957095809554
:100A900090959B01AC01BD01CF01089597FB092EF4
:100AA00005260ED057FD04D0D7DF0AD0001C38F43D
:100AB00050954095309521953F4F4F4F5F4F08958A
:100AC000F6F790958095709561957F4F8F4F9F4F6A
:100AD0000895AA1BBB1B51E107C0AA1FBB1FA61785
:100AE000B70710F0A61BB70B881F991F5A95A9F7D7
:100AF00080959095BC01CD010895EE0FFF1F0590E4
:0A0B0000F491E02D0994F894FFCF62
:100B0A00FF0FFF0FFF0FFF0FFF0FFF0FFF0FFF0F6B
:100B1A0000000000000000000000000000000000CB
:100B2A000F000D000B00090007000500030001007B
:100B3A00FF00DD00BB00990077005500330011006B
:100B4A00F000D000B000900070005000300010009B
:100B5A00F00FD00DB00B9009700750073003100149
:100B6A00000F000D000B000900070005000300013B
:100B7A000F0F0D0D0B0B09090707050503030101EB
:100B8A000000004B000004BF00004BFF0004BFFF41
:100B9A00004BFFFF04BFFFFF4BFFFFFFBFFFFFFD3F
:100BAA00FFFD7100FFD71000FDF10000DA10000010
:100BBA0071000001100000170000017E000017EF0D
:100BCA0006EFFFFF6EFFFFFFEFFFFFFAFFFFFFA336
:100BDA00FFFFFA30FFFAA300FFFA3000FFA300007C
:0A0BEA00000000008003CD03E503C6
:00000001FF
